:020000040800F2
:1000000000000120252900084D2800085928000873
:100010005F280008652800086B2800080000000021
:10002000000000000000000000000000712800082F
:100030007D28000800000000892800089528000895
:100040007529000875290008752900087529000818
:100050007529000875290008752900087529000808
:1000600075290008752900087529000875290008F8
:1000700075290008752900087529000875290008E8
:1000800075290008752900087529000875290008D8
:1000900075290008752900087529000875290008C8
:1000A00075290008752900087529000875290008B8
:1000B00075290008752900087529000875290008A8
:1000C0007529000875290008752900087529000898
:1000D0007529000875290008752900087529000888
:1000E0007529000875290008752900087529000878
:1000F0007529000875290008752900087529000868
:1001000075290008000000000000000075290008A3
:100110007529000875290008752900087529000847
:100120007529000875290008752900087529000837
:100130007529000875290008000000000000000073
:1001400075290008752900087529000800000000BD
:10015000000000000000000000000000000000009F
:1001600075290008752900087529000875290008F7
:1001700075290008752900087529000875290008E7
:100180007529000875290008000000000000000023
:0401900075290008C5
:1001940010B5054C237833B9044B13B10448AFF3BD
:1001A40000800123237010BD0C000020000000001B
:1001B400D029000808B5034B1BB103490348AFF32A
:1001C400008008BD0000000010000020D0290008B5
:1001D40080B500AF084B1B68074A43F01003136057
:1001E400032000F007F9002000F008F802F0C6FA36
:1001F4000023184680BD00BF0020024080B582B0B5
:1002040000AF7860124B1A68124B1B7819464FF4F2
:100214007A73B3FBF1F3B2FBF3F3184600F011F970
:100224000346002B01D001230EE07B680F2B0AD874
:10023400002279684FF0FF3000F0E7F8064A7B6847
:100244001360002300E0012318460837BD4680BD33
:1002540008000020040000200000002080B400AF4B
:10026400054B1B781A46054B1B681344034A13605D
:1002740000BFBD4680BC7047040000202800002059
:1002840080B400AF024B1B681846BD4680BC704763
:100294002800002080B485B000AF78607B6803F04C
:1002A4000703FB600C4BDB68BB60BA684FF6FF03C7
:1002B4001340BB60FB681A02BB68134343F0BF637F
:1002C40043F40033BB60044ABB68D36000BF1437F7
:1002D400BD4680BC704700BF00ED00E080B400AFB5
:1002E400044BDB681B0A03F007031846BD4680BCB9
:1002F400704700BF00ED00E080B483B000AF034658
:100304003960FB7197F90730002B0BDA3B68DAB2DE
:100314000C49FB7903F00F03043B1201D2B20B44E6
:100324001A7609E03B68DAB2074997F907301201F7
:10033400D2B20B4483F8002300BF0C37BD4680BC07
:10034400704700BF00ED00E000E100E080B489B038
:1003540000AFF860B9607A60FB6803F00703FB61E3
:10036400FB69C3F10703042B28BF0423BB61FB69AA
:100374000433062B02D9FB69033B00E000237B61B5
:100384004FF0FF32BB6902FA03F3DA43BB681A4049
:100394007B699A404FF0FF317B6901FA03F3D9433B
:1003A4007B680B40134318462437BD4680BC704716
:1003B40080B582B000AF78607B68013BB3F1807F89
:1003C40001D301230FE00A4A7B68013B53600F21EC
:1003D4004FF0FF30FFF790FF054B00229A60044B6B
:1003E40007221A60002318460837BD4680BD00BFA7
:1003F40010E000E080B582B000AF78607868FFF765
:1004040049FF00BF0837BD4680BD80B586B000AF48
:100414000346B9607A60FB7300237B61FFF75EFFDC
:1004240078617A68B9687869FFF790FF024697F9AE
:100434000F3011461846FFF75FFF00BF1837BD465F
:1004440080BD80B582B000AF78607868FFF7B0FFF8
:10045400034618460837BD4680BD000080B487B007
:1004640000AF7860396000237B610023FB600023C8
:100474003B6160E13B681A6801217B6901FA03F37F
:100484001340FB60FB68002B00F052813B685B6803
:10049400022B03D03B685B68122B23D17B69DA08FB
:1004A4007B68083253F822303B617B6903F0070311
:1004B4009B000F2202FA03F3DB433A6913403B61CA
:1004C4003B681A697B6903F007039B0002FA03F394
:1004D4003A6913433B617B69DA087B6808323969FE
:1004E40043F822107B681B683B617B695B00032235
:1004F40002FA03F3DB433A6913403B613B685B68F0
:1005040003F003027B695B0002FA03F33A691343C5
:100514003B617B683A691A603B685B68012B0BD0CE
:100524003B685B68022B07D03B685B68112B03D0E8
:100534003B685B68122B30D17B689B683B617B69AD
:100544005B00032202FA03F3DB433A6913403B6185
:100554003B68DA687B695B0002FA03F33A69134388
:100564003B617B683A699A607B685B683B61012206
:100574007B6902FA03F3DB433A6913403B613B684E
:100584005B681B0903F001027B6902FA03F33A6911
:1005940013433B617B683A695A607B68DB683B6163
:1005A4007B695B00032202FA03F3DB433A691340DD
:1005B4003B613B689A687B695B0002FA03F33A6922
:1005C40013433B617B683A69DA603B685B6803F01C
:1005D4008053002B00F0AC805D4B9B695C4A43F078
:1005E400010393615A4B9B6903F00103BB60BB6831
:1005F400584A7B699B08023352F823303B617B697C
:1006040003F003039B000F2202FA03F3DB433A696E
:1006140013403B617B68B3F1904F25D07B684E4A11
:1006240093421FD07B684D4A934219D07B684C4A51
:10063400934213D07B684B4A93420DD07B684A4A5D
:10064400934207D07B68494A934201D106230CE0C8
:1006540007230AE0052308E0042306E0032304E05B
:10066400022302E0012300E000237A6902F003027E
:10067400920093403A6913433B6136497B699B0876
:1006840002333A6941F82320394B1B683B61FB680C
:10069400DB433A6913403B613B685B6803F4803396
:1006A400002B03D03A69FB6813433B61304A3B6932
:1006B40013602F4B5B683B61FB68DB433A69134073
:1006C4003B613B685B6803F40033002B03D03A6959
:1006D400FB6813433B61264A3B695360244B9B6888
:1006E4003B61FB68DB433A6913403B613B685B68F1
:1006F40003F48013002B03D03A69FB6813433B6176
:100704001B4A3B6993601A4BDB683B61FB68DB4324
:100714003A6913403B613B685B6803F40013002BA8
:1007240003D03A69FB6813433B61114A3B69D360C8
:100734007B6901337B613B681A687B6922FA03F3A6
:10074400002B7FF497AE00BF1C37BD4680BC7047BA
:100754000010024000000140000400480008004866
:10076400000C00480010004800140048001800481D
:100774000004014080B483B000AF78600B467B80F6
:1007840013467B707B78002B03D07A887B689A6150
:1007940002E07A887B689A6200BF0C37BD4680BC51
:1007A400704780B483B000AF78600B467B807B6871
:1007B4005A697B885A407B685A6100BF0C37BD4632
:1007C40080BC704780B5ADF5007D00AF3B1D18605F
:1007D4003B1D1B68002B02D1012300F0DABE3B1D38
:1007E4001B681B6803F00103002B00F06481B04B0D
:1007F4005B6803F00C03042B0CD0AD4B5B6803F077
:100804000C03082B5AD1AA4B5B6803F4C033B3F52D
:10081400803F53D14FF40033C7F8F431D7F8F431A3
:1008240093FAA3F3C7F8F031D7F8F031B3FA83F3AE
:10083400DBB25B09DBB243F00103DBB2012B02D173
:100844009B4B1B6815E04FF40033C7F8EC31D7F825
:10085400EC3193FAA3F3C7F8E8314FF40033C7F847
:10086400E431D7F8E43193FAA3F3C7F8E031904BBD
:100874005B6A4FF40032C7F8DC21D7F8DC2192FA26
:10088400A2F2C7F8D821D7F8D821B2FA82F252B22C
:1008940042F0200252B2D2B202F01F02012101FA48
:1008A40002F21340002B00F005813B1D1B685B68BE
:1008B400002B40F0FF80012300F06BBE3B1D1B6842
:1008C4005B68B3F5803F06D1794B1B68784A43F4E3
:1008D4008033136030E03B1D1B685B68002B0CD138
:1008E400734B1B68724A23F480331360704B1B688C
:1008F4006F4A23F4802313601EE03B1D1B685B6872
:10090400B3F5A02F0CD16A4B1B68694A43F48023CA
:100914001360674B1B68664A43F4803313600BE033
:10092400634B1B68624A23F480331360604B1B687B
:100934005F4A23F4802313603B1D1B685B68002B14
:100944005AD0FFF79DFCC7F8F8010AE0FFF798FCBE
:100954000246D7F8F831D31A642B02D9032300F0E6
:1009640018BE4FF40033C7F8D431D7F8D43193FA12
:10097400A3F3C7F8D031D7F8D031B3FA83F3DBB29D
:100984005B09DBB243F00103DBB2012B02D1484B1C
:100994001B6815E04FF40033C7F8CC31D7F8CC31DD
:1009A40093FAA3F3C7F8C8314FF40033C7F8C4313E
:1009B400D7F8C43193FAA3F3C7F8C0313C4B5B6A50
:1009C4004FF40032C7F8BC21D7F8BC2192FAA2F246
:1009D400C7F8B821D7F8B821B2FA82F252B242F07D
:1009E400200252B2D2B202F01F02012101FA02F235
:1009F4001340002BAAD05EE0FFF742FCC7F8F801D1
:100A04000AE0FFF73DFC0246D7F8F831D31A642B0D
:100A140002D9032300F0BDBD4FF40033C7F8B4314D
:100A2400D7F8B43193FAA3F3C7F8B031D7F8B0319B
:100A3400B3FA83F3DBB25B09DBB243F00103DBB24D
:100A4400012B02D11A4B1B6815E04FF40033C7F891
:100A5400AC31D7F8AC3193FAA3F3C7F8A8314FF40B
:100A64000033C7F8A431D7F8A43193FAA3F3C7F835
:100A7400A0310F4B5B6A4FF40032C7F89C21D7F8C2
:100A84009C2192FAA2F2C7F89821D7F89821B2FAD9
:100A940082F252B242F0200252B2D2B202F01F02EB
:100AA400012101FA02F21340002BAAD103E000BF96
:100AB4000010024000BF3B1D1B681B6803F00203CB
:100AC400002B00F07181D04B5B6803F00C03002B0A
:100AD4000CD0CD4B5B6803F00C03082B6ED1CA4BD2
:100AE4005B6803F4C033B3F5004F67D10223C7F842
:100AF4009431D7F8943193FAA3F3C7F89031D7F827
:100B04009031B3FA83F3DBB25B09DBB243F0010348
:100B1400DBB2012B02D1BC4B1B6813E00223C7F8E4
:100B24008C31D7F88C3193FAA3F3C7F888310223B8
:100B3400C7F88431D7F8843193FAA3F3C7F8803126
:100B4400B14B5B6A0222C7F87C21D7F87C2192FA68
:100B5400A2F2C7F87821D7F87821B2FA82F252B219
:100B640042F0200252B2D2B202F01F02012101FA75
:100B740002F21340002B07D03B1D1B68DB68012BDE
:100B840002D0012300F005BD9F4B1B6823F0F8023F
:100B94003B1D1B681969F823C7F87431D7F8743101
:100BA40093FAA3F3C7F87031D7F87031B3FA83F32B
:100BB40001FA03F3944913430B60F5E03B1D1B68F2
:100BC400DB68002B00F085800123C7F86C31D7F86F
:100BD4006C3193FAA3F3C7F86831D7F86831B3FAE4
:100BE40083F303F1845303F584139B001A46012312
:100BF4001360FFF745FBC7F8F8010AE0FFF740FB75
:100C04000246D7F8F831D31A022B02D9032300F095
:100C1400C0BC0223C7F86431D7F8643193FAA3F354
:100C2400C7F86031D7F86031B3FA83F3DBB25B09FC
:100C3400DBB243F00103DBB2012B02D1724B1B6820
:100C440013E00223C7F85C31D7F85C3193FAA3F3BD
:100C5400C7F858310223C7F85431D7F8543193FAFE
:100C6400A3F3C7F85031684B5B6A0222C7F84C21E2
:100C7400D7F84C2192FAA2F2C7F84821D7F84821B4
:100C8400B2FA82F252B242F0200252B2D2B202F06E
:100C94001F02012101FA02F21340002BAED05A4B7D
:100CA4001B6823F0F8023B1D1B681969F823C7F879
:100CB4004431D7F8443193FAA3F3C7F84031D7F855
:100CC4004031B3FA83F301FA03F34F4913430B6042
:100CD4006AE00123C7F83C31D7F83C3193FAA3F317
:100CE400C7F83831D7F83831B3FA83F303F18453B2
:100CF40003F584139B001A4600231360FFF7C0FA20
:100D0400C7F8F8010AE0FFF7BBFA0246D7F8F83152
:100D1400D31A022B02D9032300F03BBC0223C7F8E9
:100D24003431D7F8343193FAA3F3C7F83031D7F814
:100D34003031B3FA83F3DBB25B09DBB243F0010376
:100D4400DBB2012B02D1304B1B6813E00223C7F83E
:100D54002C31D7F82C3193FAA3F3C7F828310223A6
:100D6400C7F82431D7F8243193FAA3F3C7F8203114
:100D7400254B5B6A0222C7F81C21D7F81C2192FA82
:100D8400A2F2C7F81821D7F81821B2FA82F252B2A7
:100D940042F0200252B2D2B202F01F02012101FA43
:100DA40002F21340002BAED13B1D1B681B6803F0FD
:100DB4000803002B00F0D7803B1D1B685B69002BE8
:100DC40066D00123C7F81431D7F8143193FAA3F38A
:100DD400C7F81031D7F81031B3FA83F31A460B4B26
:100DE40013449B001A4601231360FFF749FAC7F81E
:100DF400F8010DE0FFF744FA0246D7F8F831D31AA8
:100E0400022B05D90323C4E3001002402081901073
:100E14000223C7F80C31D7F80C3193FAA3F3C7F8BF
:100E240008310223C7F80431D7F8043193FAA3F246
:100E340007F580731A6007F1FC0302221A6007F1B8
:100E4400FC031B6893FAA3F207F1F8031A60A54B9D
:100E54005A6A07F1F4030221196007F1F4031B68CD
:100E640093FAA3F107F1F003196007F1F0031B688B
:100E7400B3FA83F35BB243F060035BB2DBB203F01B
:100E84001F03012101FA03F31340002BB2D06AE0DF
:100E940007F1EC0301221A6007F1EC031B6893FAD3
:100EA400A3F207F1E8031A6007F1E8031B68B3FA39
:100EB40083F31A468C4B13449B001A460023136099
:100EC400FFF7DEF9C7F8F80109E0FFF7D9F90246A0
:100ED400D7F8F831D31A022B01D9032359E307F1C8
:100EE400E40302221A6007F1E4031B6893FAA3F2F5
:100EF40007F1E0031A6007F1DC0302221A6007F12C
:100F0400DC031B6893FAA3F207F1D8031A6007F114
:100F1400D40302221A6007F1D4031B6893FAA3F2E4
:100F240007F1D0031A606F4B5A6A07F1CC03022110
:100F3400196007F1CC031B6893FAA3F107F1C80306
:100F4400196007F1C8031B68B3FA83F35BB243F07B
:100F540060035BB2DBB203F01F03012101FA03F368
:100F64001340002BB1D13B1D1B681B6803F0040325
:100F7400002B00F05981002387F8FF31594BDB69BE
:100F840003F08053002B12D1564BDB69554A43F0D2
:100F94008053D361534BDB6903F0805207F10C0398
:100FA4001A6007F10C031B68012387F8FF314F4BCC
:100FB4001B6803F48073002B1AD14C4B1B684B4AFB
:100FC40043F480731360FFF75BF9C7F8F80109E095
:100FD400FFF756F90246D7F8F831D31A642B01D932
:100FE4000323D6E2414B1B6803F48073002BEFD03C
:100FF4003B1D1B689B68012B06D13A4B1B6A394A7F
:1010040043F0010313622FE03B1D1B689B68002B18
:101014000CD1344B1B6A334A23F001031362314B66
:101024001B6A304A23F0040313621DE03B1D1B6856
:101034009B68052B0CD12B4B1B6A2A4A43F00403F3
:101044001362284B1B6A274A43F0010313620BE027
:10105400244B1B6A234A23F001031362214B1B6AAE
:10106400204A23F0040313623B1D1B689B68002B7A
:101074006BD0FFF705F9C7F8F8010BE0FFF700F9AB
:101084000246D7F8F831D31A41F28832934201D993
:1010940003237EE207F1C40302221A6007F1C403AA
:1010A4001B6893FAA3F207F1C0031A6007F1BC03AB
:1010B40002221A6007F1BC031B6893FAA3F207F13A
:1010C400B8031A6007F1B8031B68B3FA83F3DBB201
:1010D4005B09DBB243F00203DBB2022B08D1014B04
:1010E4001B6A13E000100240208190100070004041
:1010F40007F1B40302221A6007F1B4031B6893FAE0
:10110400A3F207F1B0031A60C04B5B6A07F1AC02AB
:101114000221116007F1AC02126892FAA2F107F100
:10112400A802116007F1A8021268B2FA82F252B260
:1011340042F0400252B2D2B202F01F02012101FA7F
:1011440002F21340002B99D064E0FFF799F8C7F836
:10115400F8010BE0FFF794F80246D7F8F831D31AF8
:1011640041F28832934201D9032312E207F1A40326
:1011740002221A6007F1A4031B6893FAA3F207F191
:10118400A0031A6007F19C0302221A6007F19C0372
:101194001B6893FAA3F207F198031A6007F1980306
:1011A4001B68B3FA83F3DBB25B09DBB243F00203DF
:1011B400DBB2022B02D1954B1B6A0DE007F19403BD
:1011C40002221A6007F194031B6893FAA3F207F151
:1011D40090031A608D4B5B6A07F18C020221116047
:1011E40007F18C02126892FAA2F107F188021160E9
:1011F40007F188021268B2FA82F252B242F0400257
:1012040052B2D2B202F01F02012101FA02F21340DB
:10121400002B9FD197F8FF31012B05D17B4BDB6964
:101224007A4A23F08053D3613B1D1B689B69002BD2
:1012340000F0AE81754B5B6803F00C03082B00F0E3
:10124400A5813B1D1B689B69022B40F01D8107F1A2
:1012540084034FF080721A6007F184031B6893FAC9
:10126400A3F207F180031A6007F180031B68B3FA45
:1012740083F303F1845303F584139B001A4600237C
:101284001360FEF7FDFFC7F8F80109E0FEF7F8FF69
:101294000246D7F8F831D31A022B01D9032378E197
:1012A40007F17C034FF000721A6007F17C031B689E
:1012B40093FAA3F207F178031A6007F178031B6825
:1012C400B3FA83F3DBB25B09DBB243F00103DBB2B5
:1012D400012B02D14D4B1B681BE007F174034FF047
:1012E40000721A6007F174031B6893FAA3F207F102
:1012F40070031A6007F16C034FF000721A6007F173
:101304006C031B6893FAA3F207F168031A603F4B5E
:101314005B6A07F164024FF00071116007F1640227
:10132400126892FAA2F107F16002116007F16002FB
:101334001268B2FA82F252B242F0200252B2D2B22F
:1013440002F01F02012101FA02F21340002B9DD189
:101354002E4BDB6A23F00F023B1D1B685B6A2B4993
:101364001343CB62294B5B6823F476123B1D1B6845
:10137400196A3B1D1B68DB690B43244913434B600B
:1013840007F15C034FF080721A6007F15C031B687D
:1013940093FAA3F207F158031A6007F158031B6884
:1013A400B3FA83F303F1845303F584139B001A46C1
:1013B40001231360FEF764FFC7F8F80109E0FEF7A4
:1013C4005FFF0246D7F8F831D31A022B01D9032361
:1013D400DFE007F154034FF000721A6007F1540381
:1013E4001B6893FAA3F207F150031A6007F1500344
:1013F4001B68B3FA83F3DBB25B09DBB243F001038E
:10140400DBB2012B04D1014B1B681DE0001002402C
:1014140007F14C034FF000721A6007F14C031B688C
:1014240093FAA3F207F148031A6007F144034FF05B
:1014340000721A6007F144031B6893FAA3F207F1E0
:1014440040031A60554B5B6A07F13C024FF0007190
:10145400116007F13C02126892FAA2F107F1380216
:10146400116007F138021268B2FA82F252B242F005
:10147400200252B2D2B202F01F02012101FA02F29A
:101484001340002B9BD083E007F134034FF08072AC
:101494001A6007F134031B6893FAA3F207F13003CF
:1014A4001A6007F130031B68B3FA83F303F1845322
:1014B40003F584139B001A4600231360FEF7E0FE35
:1014C400C7F8F80109E0FEF7DBFE0246D7F8F83169
:1014D400D31A022B01D903235BE007F12C034FF04D
:1014E40000721A6007F12C031B6893FAA3F207F148
:1014F40028031A6007F128031B68B3FA83F3DBB2ED
:101504005B09DBB243F00103DBB2012B02D1234BB5
:101514001B681BE007F124034FF000721A6007F107
:1015240024031B6893FAA3F207F120031A6007F15E
:101534001C034FF000721A6007F11C031B6893FA36
:10154400A3F207F118031A60144B5B6A07F1140243
:101554004FF00071116007F11402126892FAA2F1BF
:1015640007F11002116007F110021268B2FA82F258
:1015740052B242F0200252B2D2B202F01F02012152
:1015840001FA02F21340002B9DD101E0012300E097
:101594000023184607F50077BD4680BD00100240C1
:1015A40080B59EB000AF7860396000237B677B68AC
:1015B400002B01D1012364E1924B1B6803F0070364
:1015C4003A689A4210D98F4B1B6823F007028D4961
:1015D4003B6813430B608B4B1B6803F007033A68AB
:1015E4009A4201D001234CE17B681B6803F002039B
:1015F400002B08D0844B5B6823F0F0027B689B6867
:10160400814913434B607B681B6803F00103002B83
:1016140000F0DF807B685B68012B3DD14FF4003321
:101624003B673B6F93FAA3F3FB66FB6EB3FA83F35A
:10163400DBB25B09DBB243F00103DBB2012B02D165
:10164400714B1B680FE04FF40033BB66BB6E93FA1B
:10165400A3F37B664FF400333B663B6E93FAA3F32C
:10166400FB65694B5B6A4FF40032BA65BA6D92FA56
:10167400A2F27A657A6DB2FA82F252B242F0200294
:1016840052B2D2B202F01F02012101FA02F2134057
:10169400002B7DD10123F4E07B685B68022B3DD1F4
:1016A4004FF000733B653B6D93FAA3F3FB64FB6C53
:1016B400B3FA83F3DBB25B09DBB243F00103DBB2C1
:1016C400012B02D1504B1B680FE04FF00073BB6439
:1016D400BB6C93FAA3F37B644FF000733B643B6CE5
:1016E40093FAA3F3FB63484B5B6A4FF00072BA634F
:1016F400BA6B92FAA2F27A637A6BB2FA82F252B2BB
:1017040042F0200252B2D2B202F01F02012101FAC9
:1017140002F21340002B3BD10123B2E002233B63CE
:101724003B6B93FAA3F3FB62FB6AB3FA83F3DBB27A
:101734005B09DBB243F00103DBB2012B02D1324B74
:101744001B680DE00223BB62BB6A93FAA3F37B62BE
:1017540002233B623B6A93FAA3F3FB612A4B5B6A65
:101764000222BA61BA6992FAA2F27A617A69B2FA89
:1017740082F252B242F0200252B2D2B202F01F02FE
:10178400012101FA02F21340002B01D1012378E078
:101794001D4B5B6823F003027B685B681A491343A3
:1017A4004B60FEF76DFD78670AE0FEF769FD0246BF
:1017B4007B6FD31A41F28832934201D9032360E04C
:1017C400114B5B6803F00C027B685B689B009A42D8
:1017D400EBD10C4B1B6803F007033A689A4215D20D
:1017E400084B1B6823F0070206493B6813430B6050
:1017F400044B1B6803F007033A689A4206D001239E
:101804003FE000BF00200240001002407B681B68DC
:1018140003F00403002B08D01C4B5B6823F4E06244
:101824007B68DB68194913434B607B681B6803F0D2
:101834000803002B09D0154B5B6823F460527B68C6
:101844001B69DB00114913434B6000F025F8014686
:101854000E4B5B6803F0F002F0233B613B6993FAA3
:10186400A3F3FB60FB68B3FA83F322FA03F3084A99
:10187400D35C21FA03F3074A13600020FEF7BEFC91
:10188400002318467837BD4680BD00BF00100240D3
:10189400082A00080800002080B48BB000AF0023A1
:1018A400FB610023BB6100237B6200237B61002377
:1018B4003B622A4B5B68FB61FB6903F00C03042B5E
:1018C40002D0082B03D03FE0254B3B623FE0FB698D
:1018D40003F470124FF47013BB60BB6893FAA3F364
:1018E4007B607B68B3FA83F322FA03F31D4AD35C6B
:1018F4007B611A4BDB6A03F00F020F233B613B69E8
:1019040093FAA3F3FB60FB68B3FA83F322FA03F3BD
:10191400154AD35CBB61FB6903F48033002B08D008
:101924000F4ABB69B2FBF3F27B6902FB03F37B62F0
:1019340007E00B4ABB69B2FBF3F27B6902FB03F3DA
:101944007B627B6A3B6202E0054B3B6200BF3B6A01
:1019540018462C37BD4680BC704700BF00100240BB
:1019640000127A00E8290008F829000880B400AFC2
:10197400024B1B681846BD4680BC70470800002017
:1019840080B582B000AFFFF7F1FF01460B4B5B68F7
:1019940003F4E0624FF4E0637B607B6893FAA3F3A3
:1019A4003B603B68B3FA83F322FA03F3044AD35C43
:1019B40021FA03F318460837BD4680BD00100240E3
:1019C400182A000880B582B000AFFFF7CFFF0146A8
:1019D4000B4B5B6803F460524FF460537B607B688D
:1019E40093FAA3F33B603B68B3FA83F322FA03F35D
:1019F400044AD35C21FA03F318460837BD4680BD78
:101A040000100240182A000880B592B000AF786038
:101A140000233B640023FB637B681B6803F480336F
:101A2400002B00F0D680002387F847304D4BDB694C
:101A340003F08053002B0ED14A4BDB69494A43F033
:101A44008053D361474BDB6903F08053BB60BB68B1
:101A5400012387F84730444B1B6803F48073002B41
:101A640018D1414B1B68404A43F480731360FEF75E
:101A740007FC386408E0FEF703FC02463B6CD31A0B
:101A8400642B01D90323D4E1374B1B6803F480731F
:101A9400002BF0D0334B1B6A03F44073FB63FB6BE6
:101AA400002B00F083807B685B6803F44073FA6B5F
:101AB4009A427BD02B4B1B6A23F44073FB634FF495
:101AC40080333B633B6B93FAA3F3FB62FB6AB3FA89
:101AD40083F31A46254B13449B001A4601231360D3
:101AE4004FF48033BB63BB6B93FAA3F37B637B6BD1
:101AF400B3FA83F31A461D4B13449B001A46002382
:101B04001360184AFB6B1362FB6B03F00103002B99
:101B14004CD0FEF7B5FB38640AE0FEF7B1FB024691
:101B24003B6CD31A41F28832934201D9032380E1FA
:101B34000223BB62BB6A93FAA3F37B6202233B6278
:101B44003B6A93FAA3F3FB61FB69B3FA83F3DBB259
:101B54005B09DBB243F00203DBB2022B08D1014B79
:101B64001B6A0DE0001002400070004000819010DC
:101B74000223BB61BB6993FAA3F37B619C4B5B6A51
:101B840002223A613A6992FAA2F2FA60FA68B2FA67
:101B940082F252B242F0400252B2D2B202F01F02BA
:101BA400012101FA02F21340002BB6D0904B1B6ABC
:101BB40023F440727B685B688D4913430B6297F88A
:101BC4004730012B05D18A4BDB69894A23F08053C6
:101BD400D3617B681B6803F00103002B08D0844B9E
:101BE4001B6B23F003027B689B68814913430B63DF
:101BF4007B681B6803F00203002B08D07C4B1B6B33
:101C040023F440327B68DB68794913430B637B68B8
:101C14001B6803F00403002B08D0754B1B6B23F4E3
:101C240040227B681B69724913430B637B681B6802
:101C340003F02003002B08D06D4B1B6B23F0100224
:101C44007B68DB696A4913430B637B681B6803F495
:101C54000033002B08D0664B5B6823F480027B685A
:101C64005B6D634913434B607B681B6803F040035F
:101C7400002B08D05E4B1B6B23F020027B681B6A91
:101C84005B4913430B637B681B6803F48023002BBD
:101C940008D0574B1B6B23F040027B685B6A5449A6
:101CA40013430B637B681B6803F00803002B08D005
:101CB4004F4B1B6B23F440127B685B694C49134305
:101CC4000B637B681B6803F01003002B08D0484BA0
:101CD4001B6B23F440027B689B69454913430B63E8
:101CE4007B681B6803F40073002B08D0404B5B68CF
:101CF40023F400027B681B6B3D4913434B607B68F4
:101D04001B6803F08003002B08D0394BDB6A23F4F3
:101D1400F8727B689B6A36491343CB627B681B6805
:101D240003F48073002B08D0314BDB6A23F4785220
:101D34007B68DB6A2E491343CB627B681B6803F420
:101D44008053002B08D02A4B1B6B23F480727B68D2
:101D54005B6B274913430B637B681B6803F40053D5
:101D6400002B08D0224B1B6B23F400727B681B6C86
:101D74001F4913430B637B681B6803F48013002B18
:101D840008D01B4B1B6B23F080727B689B6B18493C
:101D940013430B637B681B6803F40013002B08D008
:101DA400134B1B6B23F000727B68DB6B10491343EE
:101DB4000B637B681B6803F48003002B08D00C4B77
:101DC4001B6B23F480627B685B6C094913430B63D0
:101DD4007B681B6803F40003002B0BD0044B1B6BC4
:101DE40023F400627B689B6C014913430B6301E09D
:101DF400001002407B681B6803F08073002B08D03E
:101E04000E4B1B6B23F400527B68DB6C0B491343B2
:101E14000B637B681B6803F00073002B08D0074B2F
:101E24001B6B23F400427B681B6D044913430B6353
:101E3400002318464837BD4680BD00BF001002404D
:101E440080B582B000AF78607B68002B01D101239C
:101E540043E07B6893F86930DBB2002B06D17B68E2
:101E6400002283F86820786800F0ACFC7B682422A8
:101E740083F869207B681B681A687B681B6822F0FA
:101E840001021A60786800F02DF80346012B01D195
:101E9400012322E07B685B6A002B02D0786800F0A3
:101EA4001FFA7B681B685A687B681B6822F490429F
:101EB4005A607B681B689A687B681B6822F02A0258
:101EC4009A607B681B681A687B681B6842F0010291
:101ED4001A60786800F0A5FA034618460837BD462C
:101EE40080BD000080B586B000AF78600023FB6041
:101EF4001023FB7500237B810023BB820023FB742A
:101F04007B689A687B681B691A437B685B691A4320
:101F14007B68DB691343FB607B681B681A68A74B0B
:101F240013407A681268F9680B4313607B681B6876
:101F34005B6823F440517B68DA687B681B680A435A
:101F44005A607B689A697B681B6A1343FB607B68F1
:101F54001B689B6823F430617B681B68FA680A433A
:101F64009A607B681B68964A934221D1954B1B6B00
:101F740003F00303032B17D801A252F823F000BF88
:101F8400951F0008A11F0008A71F00089B1F000839
:101F94000123FB75B2E00223FB75AFE00423FB755C
:101FA400ACE00823FB75A9E01023FB7500BFA5E096
:101FB4007B681B68844A934223D1824B1B6B03F4D6
:101FC4004033B3F5803F12D0B3F5803F02D8002BE5
:101FD40007D012E0B3F5003F0CD0B3F5403F03D077
:101FE4000BE00023FB7589E00223FB7586E00423E4
:101FF400FB7583E00823FB7580E01023FB7500BFAD
:102004007CE07B681B68714A934223D16D4B1B6B48
:1020140003F44023B3F5802F12D0B3F5802F02D8F8
:10202400002B07D012E0B3F5002F0CD0B3F5402FEE
:1020340003D00BE00023FB7560E00223FB755DE039
:102044000423FB755AE00823FB7557E01023FB7546
:1020540000BF53E07B681B685D4A934223D1594B10
:102064001B6B03F44013B3F5801F12D0B3F5801F2C
:1020740002D8002B07D012E0B3F5001F0CD0B3F543
:10208400401F03D00BE00023FB7537E00223FB75F0
:1020940034E00423FB7531E00823FB752EE01023A4
:1020A400FB7500BF2AE07B681B684A4A934223D130
:1020B400444B1B6B03F44003B3F5800F12D0B3F50C
:1020C400800F02D8002B07D012E0B3F5000F0CD01C
:1020D400B3F5400F03D00BE00023FB750EE00223A1
:1020E400FB750BE00423FB7508E00823FB7505E092
:1020F4001023FB7500BF01E01023FB757B68DB69CF
:10210400B3F5004F7DD1FB7D082B65D801A252F8B1
:1021140023F000BF3D210008592100087521000863
:10212400DD2100088F210008DD210008DD210008E1
:10213400DD210008AB210008FFF722FC03465A000A
:102144007B685B685B081A447B685B68B2FBF3F3EB
:10215400BB8244E0FFF736FC03465A007B685B68A9
:102164005B081A447B685B68B2FBF3F3BB8236E01E
:102174007B685B685B0803F5740303F510537A68A6
:102184005268B3FBF2F3BB8229E0FFF785FB0346F9
:102194005A007B685B685B081A447B685B68B2FB27
:1021A400F3F3BB821BE07B685B685B0803F580325A
:1021B4007B685B68B2FBF3F3BB8210E0F369FFEF6B
:1021C4000038014000100240004400400048004034
:1021D400004C0040005000400123FB7400BFBB8A48
:1021E40023F00F037B81BB8A5B109BB203F00703D0
:1021F4009AB27B8913437B817B681B687A89DA6096
:1022040069E0FB7D082B63D801A252F823F000BFDC
:10221400392200085922000879220008D522000832
:1022240099220008D5220008D5220008D5220008EA
:10223400B9220008FFF7A4FB02467B685B685B08D1
:102244001A447B685B68B2FBF3F39AB27B681B6841
:10225400DA6040E0FFF7B6FB02467B685B685B0828
:102264001A447B685B68B2FBF3F39AB27B681B6821
:10227400DA6030E07B685B685B0803F5F40303F520
:1022840090537A685268B3FBF2F39AB27B681B6886
:10229400DA6020E0FFF700FB02467B685B685B08BE
:1022A4001A447B685B68B2FBF3F39AB27B681B68E1
:1022B400DA6010E07B685B685B0803F500427B68CA
:1022C4005B68B2FBF3F39AB27B681B68DA6002E0E6
:1022D4000123FB7400BFFB7C18461837BD4680BD44
:1022E40080B483B000AF78607B685B6A03F001035D
:1022F400002B0AD07B681B685B6823F400317B6881
:102304009A6A7B681B680A435A607B685B6A03F0BD
:102314000203002B0AD07B681B685B6823F48031BE
:102324007B68DA6A7B681B680A435A607B685B6A6D
:1023340003F00403002B0AD07B681B685B6823F45A
:1023440080217B681A6B7B681B680A435A607B6830
:102354005B6A03F00803002B0AD07B681B685B6888
:1023640023F400417B685A6B7B681B680A435A60FC
:102374007B685B6A03F01003002B0AD07B681B6840
:102384009B6823F480517B689A6B7B681B680A43C3
:102394009A607B685B6A03F02003002B0AD07B6899
:1023A4001B689B6823F400517B68DA6B7B681B68AD
:1023B4000A439A607B685B6A03F04003002B1AD0DF
:1023C4007B681B685B6823F480117B681A6C7B68EC
:1023D4001B680A435A607B681B6CB3F5801F0AD1E3
:1023E4007B681B685B6823F4C0017B685A6C7B685C
:1023F4001B680A435A607B685B6A03F08003002B06
:102404000AD07B681B685B6823F400217B689A6CA4
:102414007B681B680A435A6000BF0C37BD4680BC0A
:10242400704780B586B002AF78600023FB607B689C
:102434000022DA66FDF724FFF8607B681B681B68DE
:1024440003F00803082B0ED16FF07E430093FB6862
:1024540000224FF40011786800F02CF80346002B9A
:1024640001D0032322E07B681B681B6803F004038C
:10247400042B0ED16FF07E430093FB6800224FF4CF
:102484008001786800F016F80346002B01D003237E
:102494000CE07B68202283F869207B68202283F883
:1024A4006A207B68002283F86820002318461037CE
:1024B400BD4680BD80B584B000AFF860B9603B60B4
:1024C4001346FB712CE0BB69B3F1FF3F28D0BB6915
:1024D400002B07D0FDF7D4FE02463B68D31ABA6935
:1024E4009A421DD2FB681B681A68FB681B6822F4B9
:1024F400D0721A60FB681B689A68FB681B6822F03C
:1025040001029A60FB68202283F86920FB6820227C
:1025140083F86A20FB68002283F8682003230FE015
:10252400FB681B68DA69BB681340BA689A420CBF3F
:1025340001230023DBB21A46FB799A42C3D000235D
:1025440018461037BD4680BD80B582B000AFFDF798
:102554003FFE00F017F800F0A3F800F071F8FDF763
:102564008FFE034603F57A737B6000BFFDF788FE98
:1025740002467B689A42F9D320214FF09040FEF73F
:1025840010F9ECE780B5A6B000AF07F1700328227C
:102594000021184600F012FA07F15C0300221A60C9
:1025A4005A609A60DA601A613B1D5822002118466D
:1025B40000F004FA02233B670123FB671023C7F8EA
:1025C40080300223C7F888304FF40043C7F88C30BA
:1025D4004FF4E013C7F890300023C7F8943007F1A4
:1025E40070031846FEF7EEF80346002B01D000F006
:1025F400BFF80F23FB6502233B6600237B664FF481
:102604008063BB660023FB6607F15C030221184666
:10261400FEF7C6FF0346002B01D000F0A9F8022301
:102624007B6000233B613B1D1846FFF7EDF9034631
:10263400002B01D000F09CF800BF9837BD4680BD48
:1026440080B500AF144B154A1A60134B4FF4164271
:102654005A60114B00229A600F4B0022DA600E4B35
:1026640000221A610C4B0C225A610B4B00229A6116
:10267400094B0022DA61084B00221A62064B002241
:102684005A620548FFF7DCFB0346002B01D000F03B
:102694006FF800BF80BD00BF2C0000200044004044
:1026A40080B58AB000AF07F1140300221A605A60A3
:1026B4009A60DA601A612B4B5B692A4A43F400235F
:1026C4005361284B5B6903F400233B613B69254B51
:1026D4005B69244A43F480035361224B5B6903F42E
:1026E4008003FB60FB681F4B5B691E4A43F40033A5
:1026F40053611C4B5B6903F40033BB60BB68194B2B
:102704005B69184A43F480235361164B5B6903F4F5
:1027140080237B607B68002220214FF09040FEF7ED
:1027240029F84FF400537B610F4BBB610023FB611D
:1027340007F1140319460D48FDF790FE20237B6131
:102744000123BB610023FB6100233B6207F11403F7
:1027540019464FF09040FDF781FE00BF2837BD4673
:1027640080BD00BF00100240000021100008004896
:1027740080B400AF00BFBD4680BC704780B582B056
:1027840000AF0F4B9B690E4A43F0010393610C4B5E
:102794009B6903F001037B607B68094BDB69084A92
:1027A40043F08053D361064BDB6903F080533B60F5
:1027B4003B680720FDF71EFE00BF0837BD4680BDFD
:1027C4000010024080B58AB000AF786007F11403AE
:1027D40000221A605A609A60DA601A617B681B688A
:1027E400174A934228D1174BDB69164A43F4003346
:1027F400D361144BDB6903F400333B613B69114B38
:102804005B69104A43F4003353610E4B5B6903F474
:102814000033FB60FB680C237B610223BB61002354
:10282400FB6100233B6207237B6207F11403194613
:102834004FF09040FDF712FE00BF2837BD4680BD23
:10284400004400400010024080B400AF00BFBD4609
:1028540080BC704780B400AFFEE780B400AFFEE7F1
:1028640080B400AFFEE780B400AFFEE780B400AFF1
:1028740000BFBD4680BC704780B400AF00BFBD46FA
:1028840080BC704780B400AF00BFBD4680BC7047B9
:1028940080B500AFFDF7E2FC00BF80BD80B400AF9F
:1028A4001B4B1B681A4A43F001031360184B5A6808
:1028B4001749184B13404B60154B1B68144A23F0FF
:1028C400847323F480331360114B1B68104A23F480
:1028D400802313600E4B5B680D4A23F4FE035360A0
:1028E4000B4BDB6A0A4A23F00F03D362084B1A6BC3
:1028F4000749094B13400B63054B00229A60074BB1
:102904004FF000629A6000BFBD4680BC704700BFB4
:10291400001002400CC07FF8CCFC00FF00ED00E08A
:10292400DFF834D0002103E00C4B5B5843500431F2
:102934000B480C4B42189A42F6D30B4A02E0002390
:1029440042F8043B094B9A42F9D3FFF7A7FF00F082
:1029540011F8FFF7F9FDFEE700000120282A00081E
:10296400000000200C0000200C0000209C0000202F
:10297400FEE7000070B50D4D0D4C641BA41000263D
:10298400A64209D10B4D0C4C00F020F8641BA41096
:102994000026A64205D170BD55F8043B9847013680
:1029A400EEE755F8043B98470136F2E7202A000881
:1029B400202A0008202A0008242A0008024403468A
:1029C400934200D1704703F8011BF9E7F8B500BF43
:1029D400F8BC08BC9E467047F8B500BFF8BC08BCFC
:0429E4009E46704754
:1029E80002030405060708090A0B0C0D0E0F101048
:1029F8000102030405060708090A0B0C0D0E0F1047
:102A08000000000000000000010203040607080996
:082A18000000000001020304AC
:042A2000B9010008F0
:042A24009501000810
:0C2A2800100000000100000000127A0005
:0400000508002925A1
:00000001FF
